:020000040800F2
:100000000080012045930008199100082191000803
:100010002991000831910008399100080000000082
:1000200000000000000000000000000041910008F6
:100030004F910008000000005D9100086B910008DE
:1000400095930008959300089593000895930008F0
:1000500095930008959300089593000895930008E0
:1000600095930008959300089593000895930008D0
:1000700095930008959300089593000895930008C0
:1000800095930008959300089593000800000000E0
:100090000000000000000000000000009593000830
:1000A0009593000895930008959300089593000890
:1000B0007991000895930008959300088D910008A8
:1000C000A191000895930008959300089593000866
:1000D0009593000895930008B59100080000000072
:1000E000C99100089593000895930008000000004E
:1000F00000000000000000000000000095930008D0
:10010000000000009593000895930008959300085F
:1001100000000000000000000000000000000000DF
:10012000959300089593000895930008959300080F
:10013000959300080000000000000000000000008F
:10014000000000000000000000000000959300087F
:1001500095930008959300089593000895930008DF
:10016000959300089593000800000000000000002F
:10017000000000000000000000000000000000007F
:10018000000000009593000800000000000000003F
:04019000959300083B
:1001A00010B5054C237833B9044B13B10448AFF3B1
:1001B00000800123237010BDBC050020000000005A
:1001C00014FD000808B5034B1BB103490348AFF306
:1001D000008008BD00000000C005002014FD0008DC
:1001E000034613F8012B002AFBD1181A0138704777
:1001F00001F0FF01102A2BDB10F0070F08D010F8D8
:10020000013B013A8B422DD010F0070F42B3F6D1DB
:10021000F0B441EA012141EA014122F007047FF0F4
:1002200000070023F0E80256083C85EA010586EA4B
:10023000010685FA47F5A3FA87F586FA47F6A5FA87
:1002400087F68EB9EED1F0BC01F0FF0102F0070293
:1002500032B110F8013B013A83EA010313B1F8D13E
:100260000020704701387047002D06BF354603381F
:10027000073815F0010F07D1013015F4807F02BF58
:10028000013015F4C03F0130F0BC0138704700BFA9
:1002900053B94AB9002908BF00281CBF4FF0FF31ED
:1002A0004FF0FF3000F06AB9ADF1080C6DE904CEF3
:1002B00000F006F8DDF804E0DDE9022304B0704741
:1002C0002DE9F047089D0C46002B4ED194468C45F5
:1002D0008646B2FA82F262D94AB1C2F12003914055
:1002E00020FA03F30CFA02FC194300FA02FE4FEA6B
:1002F0001C471FFA8CF6B1FBF7F44FEA1E4307FBCD
:10030000141143EA014304FB06F199420AD91CEB9C
:10031000030304F1FF3080F01281994240F20F8113
:10032000023C6344591A1FFA8EF3B1FBF7F007FB46
:10033000101143EA014300FB06F69E420AD91CEB6A
:10034000030300F1FF3180F0FC809E4240F2F9800F
:10035000634402389B1B40EA044000211DB1D34096
:100360000022C5E90032BDE8F0878B4205D90DB106
:10037000C5E9000100210846F5E7B3FA83F1002939
:1003800046D1A34202D39042C0F0F080861A64EBBB
:1003900003030120002DE6D0C5E90063E3E7002A4E
:1003A00040F09080A1EB0C044FEA1C481FFA8CF738
:1003B0000121B4FBF8F64FEA1E4308FB164443EA5A
:1003C000044307FB06F0984208D91CEB030306F12F
:1003D000FF3402D2984200F2CD8026461C1A1FFA42
:1003E0008EF3B4FBF8F008FB104443EA044300FB2F
:1003F00007F79F4208D91CEB030300F1FF3402D238
:100400009F4200F2B0802046DB1B40EA0640A5E791
:10041000C1F120068B4022FA06F71F4320FA06FCA2
:1004200004FA01F343EA0C03F44000FA01F8380C33
:100430004FEA1349B4FBF0FE1FFA87FC00FB1E4491
:1004400049EA04440EFB0CF9A14502FA01F20AD96B
:100450003C190EF1FF3A80F08480A14540F2818082
:10046000AEF1020E3C44A4EB09041FFA83F9B4FB7D
:10047000F0F300FB134449EA044403FB0CFCA445DD
:1004800007D93C1903F1FF3067D2A44565D9023B77
:100490003C4443EA0E40A0FB0293A4EB0C049C42B4
:1004A000CE469C4651D34ED055B1B8EB0E0364EB0B
:1004B0000C0404FA06F6CB401E43CC40C5E90064A8
:1004C000002150E7C2F1200320FA03F10CFA02FCEC
:1004D00024FA03F394400C434FEA1C4800FA02FE4E
:1004E0001FFA8CF7B3FBF8F008FB1031230C43EA3A
:1004F000014300FB07F1994208D91CEB030300F10B
:10050000FF362CD299422AD9023863445B1AA4B22E
:10051000B3FBF8F108FB113344EA034401FB07F392
:10052000A34208D91CEB040401F1FF3613D2A34205
:1005300011D902396444E41A41EA004139E704461A
:10054000F0E6084606E7C845AED2B9EB020E63EB0B
:10055000070C0138A8E73146EDE7034699E7304636
:10056000D4E7D6467FE7634402384DE70646234684
:1005700008460FE7023E634430E700BF704700BF04
:1005800080B584B000AF78604FF48173FB817B68E5
:1005900093F8BC34032B27D07B68D3F870327A6889
:1005A0005A607B68002283F8BE247B6893F8BE34CF
:1005B000022B18D87B68B12283F8BD247B68012206
:1005C00083F8BF247B68012283F8BB24786800F09D
:1005D000F5F80346FB81FB89002B05D17B680322DC
:1005E00083F8BC2400E000BFFB8918461037BD46E5
:1005F00080BD80B588B002AFF860B9603B6013463B
:10060000FB804FF48173FB82FB6893F8BB34022BB1
:1006100022D1FB6893F8BC34032B1DD0FB683A68E9
:10062000C3F87C22FB683A6AC3F88022FA883B6AE6
:1006300000933B68B968F86801F05CFB0346FB82F5
:10064000FB8A002B08D1FB68B3F88C32002B03D156
:10065000FB68032283F8BC24FB8A18461837BD4682
:1006600080BD000080B584B000AF78604FF4817326
:10067000FB817B6893F8BC34032B2AD00023FB81D9
:100680007B684FF48172A3F88C227B68012283F887
:10069000BB241249786801F0EBFA0346FB81FB8921
:1006A000B3F5817F15D17B68D3F87032184606F018
:1006B000CAF97B68D3F86832184606F065F97B689A
:1006C000D3F86C32184606F05FF97B68042283F891
:1006D000BC24FB8918461037BD4680BD4907000879
:1006E00080B584B000AFF8607A601A460B467B8113
:1006F00013463B81FB68D3F87432002B08D0FB68AB
:10070000D3F87432FA68D2F878227989104698477B
:10071000FB687A89A3F88C22FB68042283F8BC2446
:10072000FB6893F8BB34012B07D17B89002B06D1E2
:10073000FB68022283F8BB2401E000BF00E000BF99
:1007400000BF1037BD4680BD80B584B000AFF860F3
:100750007A601A460B467B8113463B81FB68042274
:1007600083F8BC24FB6893F8BB34012B12D1FB68DF
:10077000D3F87032184606F066F9FB68D3F8683291
:10078000184606F001F9FB68D3F86C32184606F0FB
:10079000FBF800E000BFFB68D3F87432002B08D0F0
:1007A000FB68D3F87432FA68D2F878227989104657
:1007B000984700BF1037BD4680BD000080B584B0AB
:1007C00000AF78604FF48173FB817B6893F8BE348F
:1007D000022B04D07B6893F8BE34002B56D17B6883
:1007E00093F8BD34B32B48D0B32B4DDCB12B02D0E2
:1007F000B22B21D048E07B6893F8BE34002B05D1A2
:100800007B68D3F86832184606F0BEF87B68D3F8E8
:100810006C32184606F0B8F87B68B22283F8BD2423
:100820007B68D3F884024FF4FA637A68234906F0B0
:10083000FDFA0023FB8128E07B6893F8BE34002B8F
:1008400005D17B68D3F86832184606F08DF87B68CE
:10085000D3F86C32184606F087F87B68B32283F829
:10086000BD247B68D3F8840242F6E0637A681349BA
:1008700006F0DCFA0023FB8107E01149786801F0FB
:10088000AFF90346FB8100E000BF09E07B6801226D
:1008900083F863220A49786801F0A2F90346FB81D4
:1008A000FB89002B05D0F989002300227868FFF727
:1008B00017FFFB8918461037BD4680BDBD070008ED
:1008C000E106000880B582B000AF786039607B68CF
:1008D000002283F830211949786800F093FC034620
:1008E000002B02D04FF4817324E07B683A68C3F890
:1008F00024217B68012283F830217B68032283F85E
:1009000031217B68032283F832217B68002283F83F
:1009100036217B68002283F835217B6803F28E2222
:100920007B68C3F818217B6803F569727B68C3F89C
:100930001C21002318460837BD4680BD450D000820
:1009400080B582B000AF78600B467B807B6893F8FF
:100950003031012B02D17B88002B02D14FF48173FF
:100960001AE07B68022283F830217B68002283F83A
:1009700034217B68002283F833217B687A88A3F8CE
:100980002C217B680A22C3F82821798800230022C1
:10099000786800F08BF8034618460837BD4680BDDE
:1009A00080B582B000AF78607B6893F83031012B5E
:1009B00002D04FF4817319E07B68032283F8302161
:1009C0007B68002283F834217B68012283F833217D
:1009D00006F0E1FA02467B68C3F820217B68054AED
:1009E000C3F82821786800F086FC034618460837CB
:1009F000BD4680BD20BF020080B485B000AF034675
:100A00000A46FB8013467B717B799AB2FB88534080
:100A10009BB2DBB2FB81FB8903F00F03BB81BB8977
:100A20001B019AB2FB8953407B817B891B093B8167
:100A30007B895B009AB23B8953409BB21B019AB2FF
:100A4000BB8953409BB2DB009AB23B8953409AB2B8
:100A5000FB881B0A9BB253409BB218461437BD4615
:100A60005DF8047B704780B584B000AF78600B46BA
:100A70007B800023BB810023FB810DE0FB897A682A
:100A800013441A78BB8911461846FFF7B5FF034691
:100A9000BB81FB890133FB81FA897B889A42EDD3C4
:100AA000BB8918461037BD4680BD000080B586B0B2
:100AB00000AF7860084611461A4603467B800B4615
:100AC0007B7013463B707B6893F83231FB827B78F6
:100AD000012B07D17B6893F8323101339BB203F0CD
:100AE0000303FB827B68D3F818313B617B78022BD0
:100AF00005D10023FB827B68D3F81C313B617B78F6
:100B0000002B08D17B6893F83031092B03D17B6827
:100B1000D3F81C313B61FB8ADAB23B691A703B693E
:100B20001A787B785B01DBB21343DAB23B691A7047
:100B30007B88002B27D03B78002B04D07B6893F870
:100B40003631002B0AD07B6893F831310133DBB2A8
:100B500003F00303DAB27B6883F831213B691A782A
:100B60007B6893F831319B00DBB21343DAB23B6907
:100B70001A707B68002283F83621314A31493248A5
:100B800005F0E0FB06E03B691B7863F07F03DAB217
:100B90003B691A707B881B0A9AB23B690133D2B257
:100BA0001A703B6902337A88D2B21A707B88033399
:100BB0009BB219463869FFF756FF0346FB81FB8954
:100BC0001B0A9AB27B88033319463B690B44D2B2A5
:100BD0001A707B8804331A463B691344FA89D2B2EF
:100BE0001A707B88002B1ED07B6893F8C03403F00A
:100BF0000F03012B06D07B6893F8C03403F00F037A
:100C0000032B08D17B8805339BB2104A19463869FB
:100C100005F0FAFB07E07B8805339BB20C4A1946C6
:100C2000386905F0F1FB7B8805339BB21A463969B8
:100C3000786800F037FB034618461837BD4680BD7C
:100C40002CFD000834FD00084CFD000854FD000890
:100C50005CFD000880B584B000AF78607B6803223B
:100C600083F831217B68032283F832217B680122DB
:100C700083F836217B68052283F830210023022285
:100C800000217868FFF712FF0346FB81FB891846B5
:100C90001037BD4680BD000080B586B000AF7860DB
:100CA0000B46FB7006F077F9F8607B68D3F80031EB
:100CB000FA68D31A3B617B68D3F80031FA689A422C
:100CC00005D27B68D3F80031FA68D31A3B613B69DF
:100CD0001B4A93422CD87B6893F83431032B09D1FB
:100CE0007B68002283F834217868FFF7B3FF03465E
:100CF000FB8215E07B6893F834310133DAB27B680C
:100D000083F834217B68022283F830217B68B3F8B2
:100D10002C11FA7801237868FFF7C8FE0346FB829E
:100D2000FB8A002B08D07B68062283F8302103E081
:100D30007B68082283F8302100BF1837BD4680BD8C
:100D40001FBF020090B589B000AFF8607A601A4604
:100D50000B467B8113463B8100237B750023FB7789
:100D60000023BB7700237B7700233B7501233B7770
:100D700000237B8300233B830023FB827B89B3F525
:100D8000837F08D1FB6893F83031012B03D0FB68D7
:100D9000082283F83021FB6893F83031013B0A2B9D
:100DA00000F20D8201A252F823F000BFD90D000815
:100DB000FF0D0008410E0008D3100008551100086F
:100DC0003B110008BF1100086D110008BF1000089A
:100DD000ED0E0008FD0F00087B89002B01D00123D8
:100DE00000E00223FB7400233B77FB68D3F8244127
:100DF000FB7C99B200230022F868A047EFE17B89D1
:100E0000B3F5817F04D1FB68052283F83021E6E148
:100E100006F0C1F80246FB68C3F82021FB680322F4
:100E200083F83021F86800F066FA0346002B04D0FE
:100E3000FB68062283F83021D1E100233B77CEE125
:100E40007B89B3F5817F04D1FB68052283F83021CB
:100E5000C5E13B89042B04D8FB68062283F83021C6
:100E6000BDE17B681B787B757B7DDB093B757B7DFA
:100E70005B11DBB203F003037B777B7D03F003039D
:100E8000BB777B7D9B10DBB203F00303FB777B68B2
:100E900001331B781B021AB27B6802331B781BB22A
:100EA00013431BB27B833B89023B7A6813441B7854
:100EB0001B021AB23B89013B79680B441B781BB2B9
:100EC00013431BB23B833B89023B9BB219467868B4
:100ED000FFF7C9FD0346FB823B7D012B01D10B22AD
:100EE00000E00A22FB6883F8302178E13A8BFB8A24
:100EF0009A420DD17B8B002B0AD03A897B8B05332C
:100F00009A4205D17B7F032B02D07B7F022B04D139
:100F1000FB68062283F8302161E1FA7FFB6893F8D1
:100F20003231013303F003039A420CD0FB680922EB
:100F300083F8302100233B77002300220021F8684A
:100F4000FFF7B4FD4BE1FB6893F83131BA7F9A4269
:100F500004D0FB68092283F8302140E17B7F012B1C
:100F600004D1FB68052283F8302138E1FB6893F84F
:100F700032310133DBB203F00303DAB2FB6883F8EA
:100F80003221FB68D3F81C313A89796818460DF094
:100F9000A2FFFB683A89A3F82E21FB68002283F8A0
:100FA0003421FB68042283F8302100233B77904AE8
:100FB0009049914805F0C6F9FB6893F8C03403F0F6
:100FC0000F03022B06D0FB6893F8C03403F00F0325
:100FD000032B06D13B89894A1946786805F014FA33
:100FE00005E03B89864A1946786805F00DFA00232A
:100FF00000220021F868FFF759FDF0E0FB6893F844
:1010000033311A467B7F022B0CBF01230023DBB256
:101010009A4204D0FB68092283F83021DFE03A8B42
:10102000FB8A9A4204D0FB68052283F83021D6E07F
:101030003B89052B02D87B8B002B04D0FB6809224F
:1010400083F83021CBE07B7F022B10D1FB68092293
:1010500083F83021FB68012283F83621FB680322E4
:1010600083F83121FB68032283F83221B7E0FB7F4C
:10107000002B08D17B7F032B05D0FB6893F831311F
:10108000BA7F9A4204D0FB68092283F83021A6E097
:101090007B7F012B04D1FB68052283F830219EE081
:1010A000FB68012283F8302100233B77FB68D3F8EB
:1010B0002441002300220221F868A0478FE0FB684A
:1010C000032283F8302100233B77F86800F013F9FE
:1010D00085E07B89B3F5817F04D1FB68052283F825
:1010E00030217CE0FB68012283F8302100233B772C
:1010F000FB6893F83331002B0FD0FB68D3F8244101
:10110000FB68D3F81C31DA1CFB68B3F82E31053BC1
:101110009BB20421F868A04761E0FB68D3F8244142
:10112000FB68D3F81C31DA1CFB68B3F82E31053BA1
:101130009BB20621F868A04751E0FB68022283F8C1
:10114000302100233B77002301220021F868FFF7BC
:10115000ADFC44E00021F868FFF79EFDFB6893F8C2
:101160003031082B3AD000233B7737E0FB6893F807
:101170003631002B03D1FB68012283F83521FB684F
:1011800093F83531002B0CD1FB68012283F8302114
:10119000FB68D3F82441002300220121F868A0470E
:1011A0000AE0F868FFF756FDFB68082283F8302153
:1011B000FB68002283F8352100233B770FE0FB68B2
:1011C000012283F83021FB68D3F824410023002258
:1011D0000121F868A04700233B7700E000BF3B7F78
:1011E000012B3FF4CBAD00BF00BF2437BD4690BDFF
:1011F0002CFD000834FD000864FD000854FD0008C3
:101200005CFD000880B582B000AF786039607B6813
:101210003A68C3F83C217B68002283F861227B682E
:10122000BB2283F862227B68D3F870327A6892F826
:10123000BA241A737B68D3F87032194A9A607B68B3
:10124000C822A3F840217B6893F8BF34012B0BD14F
:101250007B68D3F87032184605F0EAFB0346002B92
:1012600002D04FF4817316E07B6893F86332012B50
:1012700008D17B68992283F863227B68052283F872
:10128000612203E07B68012283F8612200217868F3
:1012900000F084FA002318460837BD4680BD00BF21
:1012A000851A000880B584B000AFF860B9601346B5
:1012B000FB80FB6893F86132012B07D0FB6893F841
:1012C0006132022B02D04FF4817310E0FB680122DF
:1012D00083F86022FB68BA68C3F83821FB68FA8893
:1012E000A3F846210021F86800F058FA00231846B8
:1012F0001037BD4680BD80B582B000AF78607B6896
:1013000093F86132012B07D07B6893F86132022B8E
:1013100002D04FF4817308E07B68022283F86022D8
:101320000021786800F03AFA002318460837BD46D5
:1013300080BD80B582B000AF78600B46FB7013466D
:101340003B807B68FA7883F848217B680122A3F808
:1013500042217B683A88A3F844217B68012283F804
:101360005E227B68C822A3F840217B68012283F8B3
:101370005F227B68D3F870027B6803F5A4717B68F9
:10138000B3F842311A4605F069FB00BF0837BD4685
:1013900080BD80B584B000AFF8607B600B46FB7207
:1013A00013463B81FB68FA7A83F84821FB6803F512
:1013B000A47301333A89796818460DF08CFD3B8996
:1013C00001339AB2FB68A3F84221FB68022283F83A
:1013D0005E22FB68C822A3F84021FB68012283F843
:1013E0005F22FB68D3F87002FB6803F5A471FB6809
:1013F000B3F842311A4605F031FB00BF1037BD4645
:1014000080BD80B582B000AF786004228221786808
:10141000FFF78FFF00BF0837BD4680BD80B584B0A1
:1014200000AF78600B467B807B68D3F870329B6896
:10143000BB607B68D3F8703200229A607B68D3F877
:1014400070327A881146184605F084FB0346FB810A
:101450007B68D3F87032BA689A60FB89002B19D088
:101460007B68B3F840315A1E91B27A68A2F84011F5
:10147000002B0BD07B68D3F884024FF47A737A6820
:10148000084905F0D3FC0123FB8105E04FF481738B
:10149000FB8101E00023FB81FB8918461037BD4624
:1014A00080BD00BFA914000890B58BB000AF786074
:1014B0004FF48173FB847B68BB61BB69B3F88A32EC
:1014C0001B0A9BB2DBB23B73BB69B3F88A32DBB257
:1014D0007B7300237B840023FB61002387F8253086
:1014E000BB6993F86232BB2B31D0BB2B00F3458133
:1014F000AA2B00F02D81AA2B00F33F81882B00F04E
:101500000381882B00F33981772B00F0C680772B7D
:1015100000F33381662B00F09D80662B00F32D8154
:10152000552B00F08D80552B00F32781442B40D0A4
:10153000442B00F32281332B31D0332B00F31D8158
:10154000112B00F0CB80222B00F0D48015E1642118
:101550007868FFF763FF0346FB84FB8C002B07D101
:10156000BB69332283F86222012387F8253006E124
:10157000FB8CB3F5817F40F00281BB69AA2283F81E
:1015800062220023FB6100237B84BB69D3F88402C1
:1015900042F6E063BA69804905F048FCEFE0BB69B8
:1015A000442283F8622204228421B869FFF7C1FE35
:1015B000E8E0BB6993F84A311B021AB2BB6993F8A1
:1015C0004B311BB213431BB2BB8280233B74BB69FC
:1015D000B3F88832B3F5C87F11D9BB8AB3F5C87F99
:1015E0000DD804237B74BB69552283F8622207F16E
:1015F000100302228921B869FFF7CBFE1FE0BB6907
:10160000B3F88832B3F5C87F11D8BB8AB3F5C87F69
:101610000DD903237B74BB69552283F8622207F13D
:10162000100302228921B869FFF7B3FE07E0BB6906
:10163000662283F86222012387F82530A2E0A1E028
:10164000BB69662283F8622204228421B869FFF70D
:1016500070FE97E0BB6993F84A311B021AB2BB696E
:1016600093F84B311BB213431BB2BB82BB69B3F877
:101670008832BA8A9A4208D20023FB6100237B8415
:10168000BB69AA2283F8622203E0BB69772283F850
:101690006222012387F8253074E0BB69B3F88832F1
:1016A00019467868FFF7BAFE0346FB84FB8C002BD3
:1016B00007D1BB69112283F86222012387F8253004
:1016C0005FE0FB8CB3F5817F5BD1BB69AA2283F815
:1016D00062220023FB6100237B8452E0BB6922224B
:1016E00083F8622207F10C0302228121B869FFF717
:1016F00050FE47E0BB69882283F8622202228121E2
:10170000B869FFF716FE3DE0BB69AA2283F86222A2
:10171000BB6993F848311B021AB2BB6993F849318F
:101720001BB213431BB2FB82BB69B3F88A32FA8A3D
:101730009A4205D8BB69FA8AA3F88A220023FB845F
:101740000023FB6100237B84012387F8253019E007
:10175000FB8C002B04D1BB69022283F8612203E0D9
:10176000BB69002283F86122BB69D3F83C417B8CC2
:10177000F98CFA69B869A04704E000BF02E000BF35
:1017800000E000BF97F82530002B7FF4A6AE00BF25
:1017900000BF2C37BD4690BDA914000890B587B096
:1017A00000AF78600B467B807B88002B0CD07B6879
:1017B000022283F861227B68D3F83C4179880023B8
:1017C00000227868A047F0E07B6893F86132013B23
:1017D000042B00F2DC8001A252F823F0F917000874
:1017E000011800081F1800086D190008F1170008FB
:1017F000786800F083F9D8E07868FFF755FED4E008
:101800007B68032283F861227B6893F86032022BA5
:1018100005D1042282217868FFF78BFDC5E07B6843
:1018200093F86032022B59D17B6893F8483103F06A
:101830004003002B52D07B6893F84A311B021AB246
:101840007B6893F84B311BB213431BB27B827B8ABC
:10185000002B10D07B68B3F88A327A8A9A420AD871
:101860007B68042283F861227B8A1A46802178688B
:10187000FFF75FFD79E005F08EFBF8607B68D3F839
:101880002031FA68D31A7B617B68D3F82031FA687B
:101890009A4205D27B68D3F82031FA68D31A7B616B
:1018A0007B68D3F828317A699A4209D27B68D3F8E9
:1018B000840241F288337A683E4905F0B7FA54E071
:1018C0007B68022283F861227B68D3F83C410023C5
:1018D00000224FF481717868A04746E07B6893F856
:1018E0006032012B0ED17B68042283F861227B6871
:1018F000B3F846217B68D3F8383180217868FFF748
:1019000048FD52E005F047FBF8607B68D3F82031D2
:10191000FA68D31A7B617B68D3F82031FA689A425F
:1019200005D27B68D3F82031FA68D31A7B617B68D3
:10193000D3F828317A699A4209D27B68D3F88402B5
:1019400041F288337A681B4905F070FA2DE07B6814
:10195000022283F861227B68D3F83C4100230022F5
:101960004FF481717868A0471FE01EE07B68022277
:1019700083F861227B68D3F83C417B6803F5A4724D
:101980007B68B3F8443100217868A0470DE07B689C
:10199000012283F861227B68D3F83C4100230022B6
:1019A0004FF481717868A04700BF00BF1C37BD4667
:1019B00090BD00BF0314000880B584B000AF78600C
:1019C0007B68FB60FB6893F85F32012B0CD1FB68EE
:1019D000D3F87002FB6803F5A471FB68B3F84231D9
:1019E0001A4605F03BF810E0FB6893F85F32022BD3
:1019F0000BD1FB68D3F87002FB6803F5A471FB6898
:101A0000B3F844311A4605F067F800BF1037BD46F9
:101A100080BD80B584B000AF78607B68FB60FB68F8
:101A200093F85E32012B1FD1FB6893F85F32012BD4
:101A300010D1FB68022283F85F22FB68D3F87002A2
:101A4000FB6803F5A471FB68B3F844311A4605F04E
:101A500043F812E0FB6893F85F32022B0DD10021AE
:101A6000F868FFF79BFE08E0FB6893F85E32022BF4
:101A700003D10021F868FFF791FE00BF1037BD4683
:101A800080BD000080B584B000AF78600B467B80DD
:101A90007B68FB607B88002B1ED0002B25DB013B85
:101AA000012B22D8FB68B3F840315A1E91B2FA6874
:101AB000A2F84011002B09D0FB68D3F884024FF440
:101AC0007A73FA680B4905F0B1F90FE04FF48371AE
:101AD000F868FFF763FE09E0FB68D3F8840232235D
:101AE000FA68054905F0A2F900E000BF00BF103711
:101AF000BD4680BDB9190008131A000880B584B02E
:101B000000AF78600023BB817B6893F86332993B18
:101B10000A2B5ED801A252F823F000BF491B00082F
:101B2000D31B0008D31B0008D31B0008D31B0008DD
:101B3000D31B0008D31B0008D31B0008C11B0008DF
:101B40005D1B0008A51B00087B68A22283F86322A6
:101B5000042282217868FFF7ECFB3BE07B6893F876
:101B6000483103F00803DAB27B6883F848217B68C8
:101B700093F84831082B0BD17B68A32283F86322AA
:101B800007F10C03022288217868FFF702FC21E0AC
:101B90007B68002283F861224FF481717868FFF737
:101BA000FDFD17E07B68A12283F863227B68D3F8F0
:101BB000840242F6E0637A68084905F037F909E0E3
:101BC0007B68012283F8612200217868FFF7E6FD37
:101BD00000E000BF00BF1037BD4680BDFD1A000801
:101BE00080B584B000AF786039604FF48173FB81B9
:101BF0007B68002283F80E211C49786801F0A0FA66
:101C00000346002B2BD17B683A681A647B6893F8F3
:101C1000C234112B04D17B68002283F8EC2003E04E
:101C20007B68012283F8EC207B68012283F8E220A4
:101C30007B68012283F8C1247B68002283F8E420BA
:101C40007B680022A3F856207B68112283F8E320EA
:101C50007B68112283F8E8200023FB8100E000BFAD
:101C6000FB8918461037BD4680BD00BFE927000834
:101C700090B585B000AF786039604FF48173FB8117
:101C80007B6893F8E230012B2ED17B683A681A64A6
:101C90007B6893F8C234332B09D17B681C6C00231A
:101CA000002200217868A0470023FB811DE07B68AB
:101CB00093F8E430012B18D17B6893F8C234222BBF
:101CC00013D17B68082283F8E2207B68012283F825
:101CD000E5207B6803F1A80201230021786800F069
:101CE00083FD0023FB8100E000BFFB891846143709
:101CF000BD4690BD80B586B000AFF860B9603B606E
:101D00001346FB804FF48173FB82BB68002B5AD0D3
:101D1000FB88002B57D0FB6893F8E230012B52D19F
:101D2000FB6893F8C234112B0DD1FB6893F8EC30AB
:101D3000002B08D1FB68082283F8E220FB6801220F
:101D400083F8E52003E0FB68022283F8E220FB68C9
:101D5000BA685A63FB68FA88A3F85020FB6893F8C6
:101D6000C03403F00303022B06D0FB6893F8C034A1
:101D700003F00303032B03D1FB683A689A6303E083
:101D80003B681A1DFB689A63FB683A6ADA63FB6872
:101D9000002283F8EB20FB68002283F8ED20FB682B
:101DA000002283F8EA20FB680022A3F85620FB6893
:101DB000112283F8E820FB88BA680021F86800F057
:101DC00013FD0023FB82FB8A18461837BD4680BDF1
:101DD000B0B59EB006AF786040F20713A7F85E304A
:101DE000244B07F14C041D460FCD0FC42B68237004
:101DF0007B68D3F864321B8807F10A0207F10C01F3
:101E0000184604F04DFF0346A7F85E30B7F85E3081
:101E1000002B04D040F20713A7F85E3024E0788945
:101E20007B6880337A68583207F14C0407F10C0163
:101E300028250495039220220292019310230093F7
:101E400023460246002004F027FD0346002B03D062
:101E500040F20713A7F85E307B891A4607F10C039E
:101E6000002118460CF0F1FFB7F85E3018466037D5
:101E7000BD46B0BD6CFD000880B584B000AFF86011
:101E80007A601A460B467B8113467B72FB687A7A2E
:101E900083F8A020FB68A1337968184604F0E7F8BE
:101EA000FB6893F8C124FB6883F8A520FB68A63380
:101EB0007A891146184604F0C3F800BF1037BD46B2
:101EC00080BD80B58EB006AFF860B9603B60134648
:101ED000FB804FF48173FB8397F82830F9883A68C8
:101EE000F868FFF7C9FFFB6878331B687B6107F16F
:101EF000140304333968184604F0B9F8FB6803F199
:101F00005800FB68A033F988BA6805920822049249
:101F10000822039202930823019307F1140300930C
:101F200003460A46B968002004F0DCFC0346002B97
:101F300002D10023FB8300E000BFFB8B1846203753
:101F4000BD4680BD80B58EB006AFF860B9603B601D
:101F50001346FB804FF48173FB8397F83430F98884
:101F60003A68F868FFF788FF97F830305833FA6816
:101F700013441B687B6107F1140304333968184666
:101F800004F075F8FB88083399B297F82C30583371
:101F9000FA68D018FB68A033BA6A05920822049246
:101FA0000822039202930823019307F1140300937C
:101FB00003460A46B968002004F0B5FC0346002B2E
:101FC00002D10023FB8300E000BFFB8B18462037C3
:101FD000BD4680BD80B586B002AF78600023FB812E
:101FE0007B68012283F8E2207B6893F8E830042BB9
:101FF00034D17B6893F8EA300133DAB27B6883F836
:10200000EA207B68032283F8E2207B680022A3F8A1
:1020100056207B6893F8E83043F04003DAB27B68DF
:1020200083F8E6207B6893F8E6207B6883F8A82095
:102030007B6803F1A8017B689A6B7B68543300933B
:1020400013460122786801F0A9F80346FB817B68FA
:10205000DB6B7A68B2F854201A800DE07B684FF48D
:102060008472A3F856207B68002283F8E4207B6802
:10207000FF2283F8E82000BFFB8918461037BD46D1
:1020800080BD80B58AB004AF786039604FF4817349
:10209000FB8200233B617B6893F8E330552B00F013
:1020A0007881552B00F37F81442B00F00081442B75
:1020B00000F37981332B00F09580332B00F373818B
:1020C000112B02D0222B34D06DE17B68002283F8E3
:1020D000E6207B6893F8E6207B6883F8A8207B687D
:1020E00093F8C1247B6883F8A9207B682622A3F893
:1020F00054207B6803F1A8017B6803F1A8027B6888
:102100005433009313460222786801F047F80346DF
:10211000FB82FB8AB3F5817F06D17B68552283F869
:10212000E32001233B613FE17B68222283F8E32027
:102130003AE101233B613B681B7803F04003002B2D
:1021400005D13B681B7803F04403002B0ED07B685D
:10215000B3F85430012B09D140F20713FB827B689E
:10216000FF2283F8E82000233B611DE17B68B3F880
:102170005430262B08D13B681B78002B04D13B68D8
:1021800001331B78012B04D07B68552283F8E320B0
:102190000AE13B682233184603F08AFF02467B6857
:1021A0009A647B689A6C7B68DA647B6803F18000D0
:1021B0003B680233202219460CF08DFE7868FFF749
:1021C00007FE0346FB82FB8A40F20712934204D1CA
:1021D0007B68552283F8E320E6E07B68332283F8AE
:1021E000E320E1E07B68082283F8E62000233B61DE
:1021F0007B6803F1AD007B688033202219460CF028
:102200006AFE7B6803F1CD027B689B6C1946104621
:1022100003F02DFF7B6803F1AD017B689A6C7B684E
:1022200093F8E6300093134624227868FFF749FEBE
:102230000346FB82FB8AB3F5817F06D17B6855227A
:1022400083F8E32001233B61AEE07B6893F8E6204E
:102250007B6883F8A8207B6803F1A9027B689B6CEC
:102260001946104603F003FF7B683122A3F854207F
:102270007B6803F1A8017B6803F1A8027B685433F3
:10228000009313463122786800F088FF0346FB82F2
:10229000FB8A002B06D07B68552283F8E3200123BC
:1022A0003B6181E07B68442283F8E3207CE03B686B
:1022B0001B78082B04D17B68B3F85430312B06D03F
:1022C0007B68552283F8E32001233B616CE03B6887
:1022D0000133184603F0ECFE02467B685A643B6803
:1022E000591D7B68586C7B68A8337A6892F8E620A1
:1022F0000392242202921022019200930346242288
:102300007868FFF71FFE0346FB82FB8AB3F5817FE7
:1023100006D17B68552283F8E32001233B6143E02B
:102320007B685A6C07F10C031146184603F09FFEB8
:102330007B6803F180007B68A833202219460CF0EB
:1023400074FD0346002B09D040F20713FB827B6823
:10235000552283F8E32001233B6125E07B6803F1EC
:10236000C80107F10C03042218460CF05EFD034679
:10237000002B09D040F20713FB827B68552283F8BB
:10238000E32001233B610FE07B68012283F8E42016
:102390000AE040F20713FB827B68FF2283F8E82003
:1023A00000233B6100E000BF3B69012B3FF473AEAB
:1023B000FB8A18461837BD4680BD80B594B002AF81
:1023C000F860B9603B601346FB804FF48173A7F857
:1023D0004630FB6893F8E530012B03D0022B00F068
:1023E000EB80DFE1FB6893F8C0345BB2002B07DAC7
:1023F000FB68022283F8E2200023A7F84630EDE1D3
:10240000FB6893F8C234222B0CD1FB68602283F85E
:10241000A820FB680122A3F85420FB680122A3F83E
:102420005220A6E0FB6893F8C234112B40F0938051
:10243000FB68D3F864325B88002B33D0FB6834220E
:10244000A3F85420FB68D3F864325888F968FB6815
:1024500054331A4604F024FC0346A7F84630B7F874
:102460004630012B00F0B781FB6893F83220FB68FF
:1024700083F8E420FB6893F83330002B30D1FB68FD
:10248000022283F8E220FB68002283F8E420FB6844
:10249000012283F8EC203B6801221A700023A7F880
:1024A00046309BE1FB6893F83330002B12D1FB6878
:1024B000022283F8E220FB68002283F8E420FB6814
:1024C000012283F8EC203B6801221A700023A7F850
:1024D000463083E1FB6893F83220FB6883F8E42000
:1024E000FB68682283F8A820FB6803F1A902FB6857
:1024F0005B681946104603F0BAFDFB680522A3F895
:102500005220002387F84330FB680522A3F85420AB
:10251000FB68002283F83320FB68D3F864325B88C1
:10252000002B26D007F110033422002118460CF0AE
:102530008CFCFB68D3F864325B8807F1100134220D
:10254000184604F02FFB0346A7F84630B7F846308C
:10255000012B0ED142E1FB68FF2283F8E820FB68E3
:10256000072283F8E220FB684FF48172A3F856201B
:1025700034E1FB6803F1A801FB68B3F85220FB6863
:1025800003F1A800FB68543300930346F86800F099
:1025900005FE0346A7F84630B7F84630002B40F05A
:1025A0001C81FB68022283F8E5200023A7F846304F
:1025B0003B6800221A7011E13B6801221A70BB6867
:1025C0001B7823F0030387F8453097F845306C2BD0
:1025D00033D1FB6893F8C234112B2ED1FB88052B25
:1025E0002BD1FB6803F15800FB68083328221946F9
:1025F0000CF071FCFB681A68FB685A64FB685A6847
:10260000FB68DA64FB6893F83020FB6883F8EA2003
:10261000FB6893F83120FB6883F8EB20FB6893F8A4
:102620003220FB6883F8E420FB68012283F8EC2069
:10263000FB68042283F8E220ACE097F84530642B75
:1026400040F08B80FB6893F8C234222B40F08580E9
:10265000FB88012B40F08180FB68012283F8332046
:10266000FB6803F10800FB685833282219460CF078
:1026700032FCFB685A6CFB681A60FB68DA6CFB681A
:102680005A60FB6893F8EA20FB6883F83020FB6807
:1026900093F8EB20FB6883F83120FB6893F8E42083
:1026A000FB6883F83220FB68D3F864325B88002B28
:1026B0002ED0FB683422A3F85420FB68D3F8643290
:1026C0005888F968FB68B3F854301A4604F06AFA7F
:1026D0000346A7F84630B7F84630002B18D0FB6801
:1026E000FF2283F8E820FB68072283F8E220FB68DA
:1026F000002283F8E420FB684FF48472A3F856208C
:10270000FB68002283F8ED203B6801221A7065E027
:10271000FB6858332822002118460CF096FBFB6812
:1027200000225A64FB6800229A64FB680022DA6483
:10273000FB68002283F8EA20FB68002283F8EB2084
:10274000FB68002283F8ED20FB68012283F8E22079
:10275000FB68012283F8E2201CE0FB6834220021A0
:1027600018460CF072FBFB68D3F864325B88002BD0
:102770000BD0FB68D3F864325B88F96834221846C2
:1027800004F010FA0346A7F846304FF48173A7F817
:10279000463023E0FB680022A3F856200023A7F868
:1027A00046301BE0FB68FF2283F8E820FB68072225
:1027B00083F8E220FB68002283F8E420FB684FF4F2
:1027C0008472A3F85620FB68002283F8ED203B6852
:1027D00001221A7002E000BF00E000BFB7F84630E7
:1027E00018464837BD4680BD90B597B004AFF86035
:1027F0007A601A460B467B8113463B81012387F89A
:1028000045304FF48173A7F846307B8903F4827317
:10281000002B04D17B8903F48173002B29D0FB6842
:10282000FF2283F8E820FB6893F8E230052B05D1FE
:10283000FB6840F20712A3F8562016E0FB6893F8F5
:10284000E430012B0DD17B89B3F5827F09D0FB6881
:102850004FF48472A3F85620FB68002283F8E4202A
:1028600003E0FB687A89A3F85620FB68072283F807
:10287000E220FB6893F8E230013B072B00F245842D
:1028800001A252F823F000BFA92800081729000868
:10289000292D0008572A00085B290008C12F0008CD
:1028A000DB300008C5280008FB681C6CFB68B3F827
:1028B000561000230022F868A047002387F845300F
:1028C00000F034BC07F145033A897968F868FFF7EE
:1028D00074FD0346A7F84630B7F84630002B00F0E9
:1028E0002484FB68FF2283F8E820FB68072283F832
:1028F000E220FB68002283F8E420FB684FF4847236
:10290000A3F85620FB68002283F8ED20012387F806
:10291000453000F00ABCFB6893F8C0345BB2002B72
:1029200009DBFB6893F8C034002B11D0FB6893F8E7
:10293000E430002B0CD1FB68052283F8E220FB6811
:10294000112283F8E320FB68002283F8E420EDE302
:10295000FB68042283F8E220E8E3FB6808332822BE
:10296000002118460CF071FAFB6800221A60FB681F
:10297000002283F83220FB6800225A60FB680022A4
:1029800083F83020FB68002283F83120FB680022A6
:1029900083F8332007F110033422002118460CF08D
:1029A00054FAFB68D3F864325B88002B2ED0FB68A6
:1029B000D3F864325B8807F110013422184604F022
:1029C000F1F80346A7F84630B7F84630002B1DD083
:1029D000FB68FF2283F8E820FB68072283F8E220E7
:1029E000FB68002283F8E420FB684FF48472A3F8AC
:1029F0005620FB68002283F8ED20012387F845303C
:102A0000FB6840F20712A3F856208FE37968F86854
:102A1000FFF737FB0346A7F84630B7F8463040F2D9
:102A20000712934209D1FB68B7F84620A3F8562055
:102A3000FB68072283F8E22078E3FB6893F8E43030
:102A4000012B04D1FB68042283F8E2206EE300230B
:102A500087F845306AE3FB6893F8C0345BB203F053
:102A600003035BB243F020035BB2DAB2FB6883F886
:102A7000E620FB6893F8C03403F00303022B06D072
:102A8000FB6893F8C03403F00303032B22D1FB68E7
:102A9000DB6C013313F1100F14D9FB6893F8ED30A0
:102AA000002B0FD1FB68002283F8E420FB6805228D
:102AB00083F8E220012387F84530FB68112283F870
:102AC000E32033E3FB68DB6B1A88FB68DB6B0D32BA
:102AD00092B21A80FB6893F8E620FB6883F8E7203F
:102AE000FB6893F8C03403F00303012B07D0FB68A5
:102AF00093F8C03403F00303032B40F0C280FB685B
:102B00005B6C013313F1100F14D9FB6893F8ED30AF
:102B1000002B0FD1FB68002283F8E420FB6805221C
:102B200083F8E220012387F84530FB68112283F8FF
:102B3000E320FBE2FB6893F8E830042B3FD1FB680D
:102B40005B6B591DFB68B3F85000FB685C6CFB685D
:102B50005B6B0533FA6892F8E72003922022029219
:102B600000220192009323460246F868FFF7EAF933
:102B70000346A7F84630B7F84630B3F5817F18D141
:102B8000FB68FF2283F8E820FB68072283F8E22035
:102B9000FB68002283F8E420FB684FF48472A3F8FA
:102BA0005620FB68002283F8ED20012387F845308A
:102BB000BCE2FB68DB6BFA68B2F854201A80FB6851
:102BC0005B6C5A1CFB685A64FB68052283F8E92099
:102BD000FB685B6B5A1CFB685B6C1946104603F084
:102BE00046FAFB685B6B591DFB68B3F85020FB6825
:102BF000586CFB6893F8E73000930346F868FFF7DA
:102C000060F90346A7F84630B7F84630B3F5817F40
:102C100018D1FB68FF2283F8E820FB68072283F8BD
:102C2000E220FB68002283F8E420FB684FF4847202
:102C3000A3F85620FB68002283F8ED20012387F8D3
:102C4000453073E2FB685B6BFA6892F8E6201A7015
:102C5000FB68596BFB68B3F85030FA6892F8E920CA
:102C600013449BB208339AB2FB68986BFB68DB6B2A
:102C700000930346F86800F091FA0346A7F846303F
:102C800021E0FB68012283F8E920FB685B6B0433D9
:102C9000FA6892F8E6201A70FB685B6B191DFB68F6
:102CA000B3F85030FA6892F8E92013449AB2FB68FE
:102CB000986BFB68DB6B00930346F86800F06EFAD4
:102CC0000346A7F84630B7F84630B3F5817F1DD1EB
:102CD000FB68FF2283F8E820FB68072283F8E220E4
:102CE000FB68002283F8E420FB684FF48472A3F8A9
:102CF0005620FB68002283F8ED20012387F8453039
:102D0000FB684FF48172A3F856200FE2FB68DB6B7F
:102D10001A88FB68A3F85420FB68032283F8E2209A
:102D2000002387F8453001E2FB689B6B01331846AE
:102D300003F0BEF90246FB689A643B89002B18D168
:102D4000FB68FF2283F8E820FB68072283F8E22073
:102D5000FB68002283F8E420FB684FF48472A3F838
:102D60005620FB68002283F8ED20012387F84530C8
:102D7000DCE17B681B7803F04003002B40D07B68CC
:102D80001B78402B03D07B681B78442B0CD13B89EC
:102D9000012B04D0FB6893F8E430012B04D0FB68CE
:102DA00093F8EB30032B09D1FB684FF48472A3F83E
:102DB0005620FB68002283F8E42018E0FB6893F8B3
:102DC000EC30012B0ED1FB6893F8C234112B09D1E2
:102DD000FB68002283F8E420FB684FF48472A3F8B8
:102DE000562004E0FB684FF48172A3F85620FB687C
:102DF000062283F8E220FB68FF2283F8E82095E1B1
:102E00007B681A78FB6893F8E7309A4218D0FB6821
:102E1000FF2283F8E820FB68072283F8E220FB68A2
:102E2000002283F8E420FB684FF48472A3F8562054
:102E3000FB68002283F8ED20012387F8453075E117
:102E40007B681B7803F00303022B06D07B681B789A
:102E500003F00303032B40F082803B890D2B18D82D
:102E6000FB68FF2283F8E820FB68072283F8E22052
:102E7000FB68002283F8E420FB684FF48472A3F817
:102E80005620FB68002283F8ED20012387F84530A7
:102E90004CE1FB689A6CFB68DB6C03339A4205D803
:102EA000FB689A6CFB68DB6C9A4218D8FB68FF22BF
:102EB00083F8E820FB68072283F8E220FB68002201
:102EC00083F8E420FB684FF48472A3F85620FB6873
:102ED000002283F8ED20012387F8453026E1FB68C6
:102EE0009A6CFB68DA64FB68DB6B1A88FB68DB6B47
:102EF0000D3A92B21A80FB689B6B591DFB68DB6B25
:102F00001888FB689C6CFB689B6B0533FA6892F829
:102F1000E72003922422029210220192009323467A
:102F20000246F868FFF70EF80346A7F84630B7F8F0
:102F30004630B3F5817F08D1FB68062283F8E22092
:102F4000FB68042283F8E820F0E0FB680022A3F885
:102F50005620FB68012283F8E22000BFE6E03B89AF
:102F6000012B1CD8FB68072283F8E220FB68FF22B4
:102F700083F8E820FB6893F8E430002B05D1FB6868
:102F80004FF48172A3F85620D0E0FB684FF48472AE
:102F9000A3F85620FB68002283F8E420C6E0FB6813
:102FA000DB6B1A88FB68DB6B013A92B21A80FB6814
:102FB0000022A3F85620FB68012283F8E220B5E046
:102FC0007B681B78442B66D13B89012B04D1FB68BD
:102FD00093F8EB30022B18D9FB68FF2283F8E82026
:102FE000FB68072283F8E220FB68002283F8E420D4
:102FF000FB684FF48472A3F85620FB68002283F824
:10300000ED20012387F8453090E0FB6893F8C03449
:10301000012B04D0FB6893F8C034032B36D1FB6836
:1030200093F8EB300133DAB2FB6883F8EB20FB68EE
:10303000012283F8ED20FB6893F8EB30032B1CD9B9
:10304000FB68FF2283F8E820FB68072283F8E22070
:10305000FB68002283F8E420FB684FF48472A3F835
:103060005620FB68002283F8ED20012387F84530C5
:10307000FB68012283F8E22058E0FB68042283F811
:10308000E820FB68042283F8E2204FE0FB68072277
:1030900083F8E2204AE0FB6893F8EA30032B17D16B
:1030A000FB68FF2283F8E820FB68072283F8E22010
:1030B000FB68002283F8E420FB684FF48472A3F8D5
:1030C0005620FB68002283F8ED20012387F8453065
:1030D000FB68072283F8E22028E0FB6893F8E830D9
:1030E000FF2B0DD0F868FEF775FF0346A7F84630B2
:1030F000FB68FF2283F8E820002387F8453015E0BD
:10310000FB68012283F8E22010E0FB68012283F8CB
:10311000E220FB681C6C002300224FF48171F868E8
:10312000A047002387F8453000E000BF97F84530FE
:10313000012B3FF49EAB00BF00BF4C37BD4690BD96
:1031400080B582B000AF786039607B68002283F878
:103150000E2111497868FDF7B5FB0346002B02D01C
:103160004FF4817314E07B68012283F815217B689A
:103170003A68C3F8FC207B68012283F80E217B6843
:10318000B3F88A32063B9AB27B68A3F80A2100237F
:1031900018460837BD4680BD8134000880B586B02A
:1031A00000AFF860B9603B601346FB804FF4817359
:1031B000FB82BB68002B41D0FB88002B3ED0FB6814
:1031C00093F80E31012B38D1FB68022283F80E21CF
:1031D00003F0E1FE0246FB68C3F80021FB68BA6811
:1031E000C3F8F020FB68FA88A3F80621FB680022E8
:1031F000A3F80821FB683A68C3F8F420FB683A6A30
:10320000C3F8F820FB680022A3F80421FB68002221
:1032100083F80F21FB68002283F81021FB6800224D
:1032200083F81221FB684FF48172A3F80C21F8682F
:1032300000F066F80346FB8200E000BFFB8A1846F8
:103240001837BD4680BD80B582B000AF78607B681E
:1032500093F80E31012B02D04FF481730FE07B689D
:103260000022A3F808217B680022A3F804217B68D0
:10327000022283F80E21786800F042F803461846CF
:103280000837BD4680BD80B485B000AF78607B68EC
:10329000B3F80A31BB817B68B3F806217B68B3F8C9
:1032A0000831D31A7B817B68B3F80831002B06D133
:1032B0007A89BB899A4202D80023FB7319E07B68A4
:1032C000B3F80831002B06D17A89BB899A4202D91A
:1032D0000123FB730DE07B68B3F80831002B06D0A7
:1032E0007A89BB899A4202D90223FB7301E0042345
:1032F000FB73FB7B18461437BD465DF8047B7047B3
:1033000080B584B000AF78607B68B3F80A31FB8188
:103310007868FFF7B8FF03467B737B68B3F8063124
:103320001A467B68B3F80831D21AFB899A4207DA49
:103330007B68B3F806217B68B3F80831D31AFB81A8
:103340007B7B43F00803DAB27B6883F891227B68C9
:1033500003F28E23181D7B68D3F8F0307A68B2F838
:1033600008211344FA8919460BF0B5FD7B68B3F8C0
:103370000821FB8913449AB27B68A3F80821FB89D2
:1033800001339BB219467868FDF7DAFA034618460E
:103390001037BD4680BD80B584B000AF7860012392
:1033A000FB817B68072283F891227B680022A3F8C7
:1033B0000421FB8919467868FDF7C2FA03461846CE
:1033C0001037BD4680BD000080B485B000AF034615
:1033D0000A46FB711346BB714FF48173FB81FB7985
:1033E000072B0BD0FB79002B08D0FB79042B05D0E1
:1033F000FB79022B02D0FB79012B10D1FB790B4A10
:1034000012F81330BA799A4207D0FB79074A5B0069
:1034100013445B78BA799A4201D10023FB81FB897E
:1034200018461437BD465DF8047B7047740C0108DC
:1034300080B485B000AF78600B46FB700023FB8141
:10344000FB7823F007037B737B6893F81531002B1F
:103450000FD1FB7803F00703002B04D0FB7803F0B7
:103460000703012B05D17B7B082B02D04FF481731E
:10347000FB81FB8918461437BD465DF8047B704715
:1034800090B587B000AFF8607A601A460B467B8132
:1034900013463B810023FB750023BB7501237B751D
:1034A0007B68002B06D07B681B78FB75FB7D03F0E7
:1034B0000703BB757B8903F00103002B08D0FB6871
:1034C000062283F80E21FB684FF48172A3F80C21C9
:1034D0003B89002B10D0FB7D1946F868FFF7A8FF49
:1034E0000346002B08D0FB68062283F80E21FB68F8
:1034F0004FF48172A3F80C21FB68002283F8152198
:10350000FB6893F80E31013B072B00F2D08101A23A
:1035100052F823F0353500084B350008AF38000865
:10352000E1350008273700087D3800083B380008DF
:10353000DF37000800237B75FB68D3F8FC400023CD
:1035400000220021F868A047C3E17B8903F0020351
:10355000002B40D0FB68B3F80821FB68B3F80631B4
:103560009A4215D2BB7D072B04D1FB68082283F851
:103570000E21AEE13B89002B04D0FB68062283F8C4
:103580000E21A6E100237B75F868FFF7B9FE9FE1E5
:10359000FB68042283F80E21FB680022A3F80421B3
:1035A000FB68002283F81121FB68012283F81221B5
:1035B0007B8903F00403002B40F08A81F868FDF753
:1035C000EFF90346002B03D0FB68062283F80E2197
:1035D00000237B757CE1FB68062283F80E2178E1ED
:1035E0007B8903F00403002B00F098803B89002BBB
:1035F00004D1FB68062283F80E216AE1FB68B3F868
:103600000C31B3F5827F14D1BB7D042B05D0F86853
:10361000FDF7C6F90346002B04D0FB68062283F8A9
:103620000E2156E1FB68042283F80E2100237B75EE
:103630004FE1FB6893F81121BB7D11461846FFF757
:10364000C3FE0346002B04D0FB68082283F80E213A
:103650003FE1BB7D03F00703DAB2FB6883F8112179
:103660007B68002B04D1FB68062283F80E2130E131
:10367000BB7D002B02D0BB7D042B4AD1FB68B3F885
:1036800004311A463B891344013BFA68D2F8F8200A
:103690001288934209DDFB684FF48272A3F80C2173
:1036A000FB68062283F80E2113E100237B75FB687B
:1036B000D3F8F430FA68B2F8042198187B68591CE2
:1036C0003B89013B1A460BF006FCFB68B3F804216A
:1036D0003B8913449BB2013B9AB2FB68A3F80421D7
:1036E000FB68012283F80E21FB68D3F8F830FA68F2
:1036F000B2F804211A80FB68D3F8FC40FB68D3F8C9
:10370000F420FB68D3F8F8301B880021F868A04744
:10371000DFE0FB68052283F80E21DAE0FB68062271
:1037200083F80E21D5E03A89FB68B3F80A310133FA
:103730009A4204D0FB68072283F80E21C9E0FB6897
:10374000B3F804311A463B891344013BFA68D2F8B6
:10375000F8201288934209DDFB684FF48272A3F8C7
:103760000C21FB68042283F80E21B2E07B68002B59
:1037700004D1FB68062283F80E21AAE0FB68D3F887
:10378000F430FA68B2F8042198187B68591C3B8918
:10379000013B1A460BF09FFBFB68B3F804213B8901
:1037A00013449BB2013B9AB2FB68A3F80421FB7D52
:1037B00003F00703DAB2FB6883F81121FB680422E7
:1037C00083F80E21F868FDF7EBF80346002B03D0D1
:1037D000FB68062283F80E2100237B7579E03B8984
:1037E000012B09D9FB6893F81231012B04D1FB6836
:1037F000072283F80E216CE0FB6893F80F315A1C06
:10380000D1B2FA6882F80F11002B11D1FB680122A6
:1038100083F80E21F868FFF716FD0346002B04D04D
:10382000FB68062283F80E2153E000237B7550E0ED
:10383000FB68062283F80E214BE0FB68022283F826
:103840000E21FB6893F810315A1CD1B2FA6882F845
:103850001011002B0DD1F868FFF79DFD0346002BDA
:1038600004D0FB68062283F80E2132E000237B752A
:103870002FE0FB68062283F80E212AE000237B75E7
:103880007B8903F00103002B02D13B89002B03D07D
:10389000FB68012283F80E21FB68D3F8FC40FB682B
:1038A000B3F80C1100230022F868A04711E0FB6870
:1038B000012283F80E2100237B75FB68D3F8FC40BE
:1038C000FB68B3F80C1100230022F868A04700E061
:1038D00000BF7B7D012B3FF4E3AD00BF00BF1C3771
:1038E000BD4690BD80B582B000AF7860391D4FF005
:1038F000FF33012203480AF09DF87B681846083719
:10390000BD4680BD7C06002080B483B000AF7860E7
:103910000B467B80044A7B88138000BF0C37BD4672
:103920005DF8047B704700BFC406002080B582B0FC
:1039300000AF78607B681B68B3F1804F01D103F062
:10394000C3FA00BF0837BD4680BD000080B5ADF5A5
:10395000515D04AF07F58663A3F22C43186007F5A9
:103960008663A3F53A735C4A1846114643F2E42392
:103970001A460BF0B0FA07F170031C3B184603F02F
:103980002FFB07F170031C3B0021184603F046FB98
:1039900007F5B871283907F170031C3B43F2E422A4
:1039A000184605F0EFF807F59872083A07F170032A
:1039B0001C3B1146184605F05AF907F170031C3BF1
:1039C000184603F01AFB07F58663A3F55C73434AB8
:1039D0001846114647231A460BF07DFA07F5866311
:1039E000A3F2224341221A8007F13002203A07F560
:1039F0008663A3F22C4007F13003223B0093134669
:103A000000224EF2E801006802F0B8FE03461A46B2
:103A1000334B1A80324B1B889BB2002B06D04EF2E0
:103A2000E80130480BF082F900234EE000222E49D5
:103A3000002002F073FA07F5505303F12C031860CD
:103A400007F5505303F12C031B68002B04D12748C2
:103A50000BF0D4F9002338E0214B01221A8007F142
:103A6000F003303B07F5987108394EF2E8020292F4
:103A70000022019247220092202207F5505000F1C7
:103A80002C00006802F0B2FA01E003F0FBF9144BDD
:103A90001B889BB2012BF8D007F5505303F12C0380
:103AA000186802F07FFA0E4B1B889BB2002B08D0DF
:103AB0000B4B1B889BB219460D480BF037F90023BE
:103AC00003E00C480BF09AF90123184607F550570C
:103AD0003037BD4680BD00BF00000208E432020856
:103AE000C406002080FD000809390008B0FD000868
:103AF000E0FD000814FE000880B582B000AF7860D9
:103B00007868FFF723FF034618460837BD4680BD97
:103B100080B582B000AF00237B6040F202337B802F
:103B200000222C49002002F081FD78607B68002B88
:103B300003D129480BF062F949E0284B01221A8091
:103B40000021786802F0B4FD03467B807B88002B5F
:103B500003D023480BF052F928E0642005F08EFCD6
:103B600001E003F08FF91D4B1B889BB2012BF8D0AD
:103B7000642005F083FC194B1B889BB2002B0AD1F3
:103B800018480BF03BF900BF7868FFF7B5FF034614
:103B9000002B0FD00BE0114B1B889BB2194612482B
:103BA0000BF0C4F84FF4FA6005F068FCC5E700F0CC
:103BB0003BFA0CE00D480BF021F920210C4805F0F0
:103BC000D0FF4FF4FA7005F059FC00BFF5E7083755
:103BD000BD4680BD0939000844FE0008C406002027
:103BE0006CFE0008ACFE0008D8FE000808FF0008C4
:103BF0000000024080B584B000AF786011480BF03F
:103C0000FDF80123FB7313E0FB7B9BB25B0099B2D1
:103C10000A230122786806F06DFC0346002B04D1CC
:103C2000FB7B194608480BF081F8FB7B0133FB73E3
:103C300097F90F30002BE7DA00BF00BF1037BD4601
:103C400080BD00BF38FF00084CFF000880B500AF02
:103C500005F0A2FB00F054F800F06EF900F042F914
:103C600000F0C6F800F0F2F800F0B6F81B4809F0D2
:103C7000ADFA002200211C2005F0FFFC1C2005F0FD
:103C800018FD01222021164805F052FF01230322CE
:103C9000194614480BF04AF813480BF0AFF81348D4
:103CA00002F062FE12480BF0A9F8124802F06CFE16
:103CB0000A2005F0E3FB0F4802F056FE0A2005F04B
:103CC000DDFB0D48FFF796FF0C480BF097F86420DA
:103CD00005F0D4FBFFF71CFF00BFFDE73406002012
:103CE0000000024068FF000888FF0008FC04002074
:103CF000A8FF000804050020E0050020C0FF000820
:103D000080B594B000AF07F120033022002118469F
:103D10000BF09BF807F10C0300221A605A609A60BE
:103D2000DA601A610023BB60294B1B6C284A43F000
:103D300080531364264B1B6C03F08053BB60BB683D
:103D400000237B60234B1B6823F44043214A43F448
:103D5000004313601F4B1B6803F440437B607B6888
:103D600002233B620123FB6210233B630223BB63FC
:103D70000023FB6310233B644FF4A8737B6404238C
:103D8000BB640723FB6407F12003184608F036FDE7
:103D90000346002B01D000F06DF90F23FB600223D6
:103DA0003B6100237B614FF48053BB610023FB61C7
:103DB00007F10C030221184608F098FF0346002B78
:103DC00001D000F057F900BF5037BD4680BD00BF9D
:103DD000003802400070004080B500AF0022002192
:103DE0001F2005F04AFC1F2005F063FC00BF80BDCA
:103DF00080B500AF124B134A1A60114B124A5A6039
:103E00000F4B00229A600E4B0022DA600C4B4FF4ED
:103E100080421A610A4B00225A61094B00229A61C2
:103E2000074B0022DA61064B00221A62044805F0B3
:103E3000D7FE0346002B01D000F01CF900BF80BD67
:103E4000E005002000540040801A060080B586B0CE
:103E500000AF07F1080300221A605A609A60DA6026
:103E60003B4600221A605A601D4B4FF080421A6098
:103E70001B4B42F2CF025A60194B00229A60184B3A
:103E80000922DA60164B00221A61154B00229A6152
:103E9000134809F04BF90346002B01D000F0EAF873
:103EA0004FF48053BB6007F1080319460C4809F032
:103EB000DFFA0346002B01D000F0DCF800233B6062
:103EC00000237B603B461946054809F0E1FC0346A8
:103ED000002B01D000F0CEF800BF1837BD4680BDE2
:103EE0003406002080B500AF114B124A1A60104B07
:103EF0004FF4E1325A600E4B00229A600C4B0022C4
:103F0000DA600B4B00221A61094B0C225A61084BF4
:103F100000229A61064B0022DA61054809F03AFD59
:103F20000346002B01D000F0A5F800BF80BD00BF04
:103F30007C0600200044004080B58AB000AF07F145
:103F4000140300221A605A609A60DA601A61002332
:103F50003B61324B1B6B314A43F0040313632F4B1D
:103F60001B6B03F004033B613B690023FB602B4B9D
:103F70001B6B2A4A43F080031363284B1B6B03F02F
:103F80008003FB60FB680023BB60244B1B6B234A50
:103F900043F001031363214B1B6B03F00103BB6070
:103FA000BB6800237B601D4B1B6B1C4A43F0020364
:103FB00013631A4B1B6B03F002037B607B680022C8
:103FC0004FF49871164805F0B3FD4FF400537B6130
:103FD0004FF40413BB610023FB6107F1140319467E
:103FE000104805F021FC4FF498737B610123BB61FD
:103FF0000023FB6100233B6207F1140319460848C4
:1040000005F012FC00220021282005F036FB2820B4
:1040100005F04FFB00BF2837BD4680BD0038024089
:10402000000002400008024080B582B000AF0C489A
:104030000AF0E4FE0B4B1B680B4A13600A4B1B682B
:104040001A460A4B1A600A4B1B687B607B6883F335
:10405000088800BF054B1B68984700BFFDE700BFFD
:10406000E4FF000804000208DC050020D805002059
:104070000000020880B400AF72B600BF00BFFDE7C9
:1040800080B483B000AF78600B46FB701346BB7002
:10409000BB78022B0ED0022B10DC002B02D0012BA0
:1040A00004D00BE07B68FA789A7608E07B68FA78AF
:1040B000DA7604E07B68FA781A7700E000BF00BF88
:1040C0000C37BD465DF8047B704780B483B000AF09
:1040D0003B600346FB710B46BB711346BB803B68DC
:1040E000FA791A703B680133BA791A70BB881B0AD7
:1040F0009AB23B680233D2B21A703B680333BA8873
:10410000D2B21A7000BF0C37BD465DF8047B704711
:1041100080B487B000AFBA607B600346FB730B4688
:10412000BB817B681B88FB82FB8A5A1CFA821A4679
:10413000BB681344FA7B1A70BB891B0A9AB2FB8ACC
:10414000591CF9821946BB680B44D2B21A70FB8A1B
:104150005A1CFA821A46BB681344BA89D2B21A7042
:104160007B68FA8A1A8000BF1C37BD465DF8047B65
:10417000704780B582B000AF78600021786800F0A9
:104180006FFF00BF0837BD4680BD80B584B000AF6B
:10419000F8607A601A460B46FB721346BB72FB68E6
:1041A000FA699A60FB68BA7A9A75FB683A7EDA75A2
:1041B000FB687A685A60FB6800221A76FB68FA7A14
:1041C0005A76FB683A8C9A840021F86800F048FF20
:1041D00000BF1037BD4680BD80B584B000AF7860A9
:1041E0007B680833184601F063FFF860FB68B3F1A1
:1041F000103F01D2012300E0002318461037BD46CE
:1042000080BD000080B485B000AF78607B681B681B
:104210000833BB607B689B8A002B1DD10023FB7396
:1042200017E0FB7BBA6813441B78102B0ED0FB7B86
:104230001AB20C4B13431BB29AB27B689A82FB7B77
:10424000BA68134410221A7000BF05E0FB7B0133EB
:10425000FB73FB7B032BE4D900BF1437BD465DF82D
:10426000047B704700E1FFFF80B485B000AF786049
:104270007B681B680833FB607B689B8A002B0DD032
:104280007B689B8ADBB203F00F03FB727B68002222
:104290009A82FB7AFA68134400221A7000BF14371E
:1042A000BD465DF8047B704780B485B000AF786090
:1042B0000B46FB701346BB700023BB7300237B735C
:1042C0000023FB7327E0FB78082B02D0092B0CD0CE
:1042D00017E0FA7B796813465B0013449B000B449C
:1042E00003F5C7631B787B730BE0FA7B7968134691
:1042F0005B0013449B000B4403F239631B787B7310
:1043000000BFBA787B7B9A4202D1BB7B0133BB737F
:10431000FB7B0133FB73FB7B052BD4D9BB7B18469E
:104320001437BD465DF8047B704780B485B000AF9C
:10433000786039600023FB731FE07B681968FA7BA3
:1043400013465B0013449B000B4403F239631B7854
:10435000002B0FD13B68FA7B1A707B681968FA7BD7
:1043600013465B0013449B000B4403F239630122A4
:104370001A7006E0FB7B0133FB73FB7B052BDCD95A
:1043800000BF00BF1437BD465DF8047B704780B4A2
:1043900083B000AF78607B681A687B689B7F1946A2
:1043A0000B465B000B449B00134403F2396300226D
:1043B0001A707B681A687B689B7F19460B465B0006
:1043C0000B449B00134403F5C76300221A707B68FB
:1043D00000229A7700BF0C37BD465DF8047B70471A
:1043E00080B588B000AF78604FF0FF33FB61FF23EA
:1043F000BB7600237B767B687B617B69D3F878365C
:104400003B61022209217869FFF74EFF0346002B2A
:1044100007D1082209217869FFF746FF0346002BE0
:104420000FD0042209217869FFF73EFF0346012BD4
:104430000FD1232208217869FFF736FF0346002BAE
:1044400007D04FF47A737A696D49386902F0EEFC4F
:10445000D2E0386902F0C4FC7B7E012B05D17B6978
:104460000022C3F87C2600237B760023FB765BE0EA
:10447000FA7E13465B0013449B0003F5C6637A691A
:104480001344FB60082209217869FFF70DFF0346FA
:10449000012B0DD1FB685B7A082B42D1FB681B7A9C
:1044A000232B3ED1FB685B68FB61FB7EBB7638E06B
:1044B000FB685B7A022B34D1FB685A687B69D3F8BE
:1044C0007C369A4201D201237B76FB685B68FA69ED
:1044D0009A4226D3FB685A687B69D3F87C369A42A5
:1044E0001FD3FB681B7A222B05D17869FFF774FE76
:1044F0000346012B10D0FB681B7A222B04D1FB68EA
:104500001B689B8A002B07D1FB681B7A212B03D0E9
:10451000FB681B7A232B04D1FB685B68FB61FB7E85
:10452000BB76FB7E0133FB76FB7E052BA0D9BB7EE1
:10453000FF2B02D17B7E012B8ED0BB7EFF2B54D074
:10454000BA7E13465B0013449B0003F5C6637A6989
:104550001344FB60BA7E796913465B0013449B00E9
:104560000B4403F5C7631B78222B11D1FB681B6832
:104570009B8A002B0CD1BA7E796913465B001344E9
:104580009B000B4403F5C6631B681846FFF73AFE11
:10459000BA7E796913465B0013449B000B4403F514
:1045A000C6631B681B68D3F878363B61BA7E7969AD
:1045B00013465B0013449B000B4403F5C6631A6863
:1045C00032231049386902F031FCBA7E796913460A
:1045D0005B0013449B000B4403F2396304221A70FE
:1045E0007B69FA69C3F87C2606E04FF47A737A692E
:1045F0000349386902F01AFC00BF2037BD4680BD70
:10460000E143000873410008B0B582B000AF7860A4
:104610000B46FB707B681A687B689B7F19460B46CC
:104620005B000B449B00134403F5C7631B78232BEB
:1046300011D17B681A687B689B7F19460B465B002B
:104640000B449B00134403F5C7631B78232B12D143
:10465000FB78232B0FD07B681C687B689B7F1D46F3
:1046600002F0A0FC02462B465B002B449B00234437
:1046700003F234631A607B681A687B689B7F194673
:104680000B465B000B449B00134403F5C6637A683A
:104690001A607B681A687B689B7F19460B465B0033
:1046A0000B449B00134403F5C7631B78232B11D1E4
:1046B000FB78232B0ED17B681A687B689B7F194699
:1046C0000B465B000B449B00134403F23963082242
:1046D0001A700DE07B681A687B689B7F19460B4651
:1046E0005B000B449B00134403F2396302221A70EF
:1046F0007B681A687B689B7F19460B465B000B44FE
:104700009B00134403F5C763FA781A7000BF08379B
:10471000BD46B0BD80B582B000AF78607B681A68D6
:104720007B689B7F19460B465B000B449B00134440
:1047300003F234634FF0FF321A607B681A687B68BB
:104740009B7F19460B465B000B449B00134403F50B
:10475000C66300221A607B681A687B689B7F1946D3
:104760000B465B000B449B00134403F5C763002218
:104770001A707B681A687B689B7F19460B465B0042
:104780000B449B00134403F2396301221A707B68C7
:104790001B68D3F878067B681B681A46034902F049
:1047A00007FB00BF0837BD4680BD00BFE1430008DE
:1047B00080B483B000AF78607B681A687B689B7FA9
:1047C00019460B465B000B449B00134403F239630C
:1047D00001221A707B681A687B689B7F19460B461A
:1047E0005B000B449B00134403F5C76300221A705F
:1047F00000BF0C37BD465DF8047B704780B582B0C2
:1048000000AF786022217868FFF7FEFE002318468B
:104810000837BD4680BD80B582B000AF786078684B
:10482000FFF722FD002318460837BD4680BD80B53E
:1048300082B000AF78600B46FB70FB781946786851
:10484000FFF7E2FE002318460837BD4680BD80B55D
:1048500082B000AF78607868FFF75CFF00231846ED
:104860000837BD4680BD80B584B000AF786040F2A7
:104870000223FB817B685B8C002B11D00823BB815A
:104880007B68588C7B681B6803F5D06307F10C02CA
:10489000194602F005FA0346FB81FB89002B1AD169
:1048A0007B681B6803F5D063184601F001FC0346E2
:1048B000002B0DD17B681B6803F28463184601F05E
:1048C000F7FB0346002B03D140F20223FB8103E0F8
:1048D0000023FB8100E000BFFB8918461037BD466E
:1048E00080BD80B584B000AF78607B68FB60FB68FA
:1048F0005B7E002B29D0FB681B7F222B25D1FB6818
:104900001B6803F5D06308220021184602F032FB31
:10491000FB685B8C332B18D1FB685B8C002B14D0AD
:10492000FB68588CFB681B6803F5D06308221946A6
:1049300002F038F903461A46FB681A84FB681B8CA0
:10494000002B02D0FB6804229A7500BF1037BD46C9
:1049500080BD000080B582B000AF786039603B68F0
:1049600001221A707B68DB7D022B5FD0022B6DDC8D
:10497000002B02D0012B1BD068E021217868FFF7C3
:1049800056FF03461A467B681A847B681B8C002BF3
:104990000AD07B6804229A757B6840F202221A844E
:1049A0003B6800221A705CE07B680122DA7558E0EF
:1049B0007B681B681B687A68927E9A747B681B68A8
:1049C0001B687A68D27EDA747B681B681B687A6819
:1049D000127F1A757B681A687B681B681B68D2F89F
:1049E00078261A607B681B681B687968184601F096
:1049F000E4F87B681B681B68184601F0EDF8034675
:104A00001A467B681A847B681B8C002B0AD07B6853
:104A100004229A757B6840F202221A843B680022C5
:104A20001A701EE07B680222DA751AE07B681B6848
:104A3000D3F8780632237A68104902F0F7F97B68D8
:104A400002229A757B680922DA750AE07B680422E3
:104A50009A757B6840F202221A843B6800221A7021
:104A600000BF3B681B78002B04D17B689B7D002B2B
:104A70003FF475AF00BF0837BD4680BD73410008E5
:104A800080B582B000AF786039603B6801221A704F
:104A90007B68DB7D032B02D0042B68D07AE07B6837
:104AA0001B7F222B02D07B680422DA757B681B688F
:104AB0001B687A68927E9A747B681B681B687A68A8
:104AC000D27EDA747B681B6893F88836002B06D098
:104AD0007B681B681B687A68127F1A7504E07B6824
:104AE0001B681B6833221A757B681B68002283F8D9
:104AF00088267B680422DA757B681A687B681B68E5
:104B00001B68D2F878261A607B681B681B68796876
:104B1000184601F052F87B681B681B68184601F0C4
:104B2000D9F803461A467B681A847B681B8C002BD5
:104B30000AD07B6804229A757B6840F202221A84AC
:104B40003B6800221A7031E07B681B7F222B06D164
:104B50007B680422DA753B6801221A7026E07868C7
:104B6000FFF775FE03461A467B681A841EE07B68D1
:104B70001B697A68D2680021104698477B681B7FC2
:104B8000222B12D17868FFF762FE03461A467B6833
:104B90001A840AE07B6804229A757B6840F202223C
:104BA0001A843B6800221A7000E000BF3B681B7843
:104BB000002B04D17B689B7D012B3FF466AF00BFC7
:104BC0000837BD4680BD000090B587B002AF786061
:104BD00039607B685B68FB607B68DB7D053B042B91
:104BE00000F2D68001A252F823F000BF014C000869
:104BF000014C0008554C0008694C0008A54C000801
:104C00003B6801221A707B68DB7D052B07D1786831
:104C1000FFF7F4FD03461A467B681A8407E021215A
:104C20007868FFF704FE03461A467B681A847B689F
:104C30001B8C002B0AD07B6804229A757B6840F29B
:104C400002221A843B6800221A70ACE07B680922B9
:104C5000DA75A8E07868FFF7ABFD7B680822DA75A3
:104C60003B6800221A709EE023217868FFF7DFFD81
:104C700003461A467B681A847B681B8C002B0AD07B
:104C80007B6804229A757B6840F202221A843B6892
:104C900000221A7087E07B680922DA753B680122DE
:104CA0001A7080E03B6801221A70FB6878689847A8
:104CB00003461A467B681A847B681B8C002B06D03F
:104CC0007B6804229A753B6800221A706BE07B684F
:104CD0001B6840F22262DA807B681B681B687A6876
:104CE000927E9A747B681B681B687A68D27EDA743D
:104CF0007B681B6893F888167B689A7E7B681B68C4
:104D00000A43D2B283F888267B681B681B687968DF
:104D1000184600F052FF7B681B6818687B681B68A8
:104D200003F10D017B681B689A887B681B6803F19F
:104D30000D047B681B6806330093234600F084FF54
:104D400003461A467B681A847B681B8C002B0AD0AA
:104D50007B6804229A757B6840F202221A843B68C1
:104D600000221A701FE07B6803229A757B680A2272
:104D7000DA757B685B7F03F07F03DAB27B685A7772
:104D80007B685B7F63F07F03DAB27B685A770AE067
:104D90007B6804229A757B6840F202221A843B6881
:104DA00000221A7000BF3B681B78002B04D17B687F
:104DB0009B7D022B3FF410AF00BF1437BD4690BD62
:104DC00080B582B000AF786039603B6801221A700C
:104DD000786800F069FA03461A467B681A847B6893
:104DE0001B8C002B04D07B681B8C1BB2002B0ADAB7
:104DF0007B681B8CB3F5004F0CD17B685B7F03F0A5
:104E00000303032B06D17B6804229A753B680022BA
:104E10001A7000BF00BF0837BD4680BD80B584B0A2
:104E200000AF786039607B685B68FB603B6801229B
:104E30001A707B685B7F5BB2002B0BDAFB687868CB
:104E4000984703461A467B681A847B681B8C002BA4
:104E50004ED106E07B6804229A753B6800221A70E6
:104E60006FE07B689B8CDBB2F12B13D17B681B68F6
:104E7000D3F878064FF47A737A68344901F0D6FF94
:104E80003B6801221A707B6801229A757B680322B5
:104E9000DA7556E07B681B7E002B0ED17B68DB7DCC
:104EA0000E2B06D07B68DB7D0D2B02D07B680C229D
:104EB000DA753B6800221A7043E07B681B68D3F800
:104EC00078064FF47A737A68204901F0AFFF3B68A7
:104ED00001221A707B689B7E03F00303DAB27B68C1
:104EE0009A767B6802229A757B680922DA7528E037
:104EF0007B681B8CB3F5017F06D17B680C22DA75C9
:104F00003B6800221A701CE07B68DB7D0D2B03D10F
:104F10003B6800221A7014E07B680B22DA757B680C
:104F20005B7F23F00303DAB27B685A777B685B7F91
:104F300043F00103DAB27B685A773B6800221A70AB
:104F4000FFE700BF1037BD4680BD00BF73410008BA
:104F500080B582B000AF786039607B68DB7D0A3B4A
:104F6000042B4DD801A252F823F000BF814F000856
:104F70008B4F0008D54F0008954F0008E94F0008F7
:104F800039687868FFF74AFF45E039687868FFF7C5
:104F900017FF40E07868FFF73EFC7B681B8C002B16
:104FA00003D17B680C22DA7510E07B680B22DA757E
:104FB0007B685B7F23F00303DAB27B685A777B68F8
:104FC0005B7F43F00103DAB27B685A773B680022CB
:104FD0001A7020E07868FFF73AFC7B680E22DA75D9
:104FE0003B6800221A7016E07B681B697A68D068FB
:104FF0007A68128C114698473B6801221A700AE0C1
:105000007B6804229A757B6840F202221A843B680E
:1050100000221A7000BF3B681B78002B03D17B680D
:105020009B7D032B99D000BF0837BD4680BD00BFD4
:1050300080B582B000AF786039607868FFF707FC10
:105040007B681B697A68D0687A68128C1146984729
:105050003B6801221A7000BF0837BD4680BD0000C2
:1050600080B584B000AF78600B467B800123FB7273
:105070007B68FB607B88002B08D07868FFF731FCE9
:10508000FB6804229A75FB687A881A84FB689B7D0A
:10509000042B30D801A252F823F000BFB150000811
:1050A000BF500008CD500008DB500008E950000850
:1050B00007F10B031946F868FFF74CFC1CE007F1F9
:1050C0000B031946F868FFF7DBFC15E007F10B034B
:1050D0001946F868FFF778FD0EE007F10B03194653
:1050E000F868FFF735FF07E007F10B031946F8688A
:1050F000FFF79EFF00E000BFFB7A002BC6D000BF89
:1051000000BF1037BD4680BD90B587B000AF0346E5
:10511000B9607A60FB7300237B6101F0F5FEFB7BD5
:10512000002B5BD1FB7B334A52F82330002209214C
:105130001846FFF7B9F80346002B51D0282101206B
:1051400001F0F0FE78617B69002B4BD07B69BA6877
:105150001A617B697A68DA60FB7B264A52F8232061
:105160007B691A60FB7B244A32F813207B695A84DE
:105170007B691B681B7B002B29D17B691A687B69C3
:105180001C6811461D4801F039FE0346C4F8783604
:105190007B691C6879691A4800F0D2FC03462360D9
:1051A0007B691B681B68002B05D1786901F0C8FE7C
:1051B00000237B6117E07B691B6801221A737B69FE
:1051C0001A687B691B681B68D2F878261A607B69AD
:1051D0001E3319467869FFF7A8F804E000BF02E023
:1051E00000BF00E000BF01F096FE7B6918461C3747
:1051F000BD4690BDCC040020D0040020E14300084F
:105200006150000880B584B000AF786040F202239E
:10521000FB8101F079FE7B68002B3CD07868FFF7BA
:10522000FAFA0346FB817868FFF7B1F81D4B1B685B
:10523000002209211846FFF737F80346062B25D12F
:105240007B681B681B7B012B20D17B681B681B685C
:105250001B68184601F0C4FD7B681B6800221A73A6
:105260007B681B681B6800221A607B681B681B68D0
:10527000184600F08BFC7B681B6800221A607B6874
:105280001B68D3F87836184601F034FE786801F0D0
:1052900057FE0023FB8101F03EFEFB8918461037C4
:1052A000BD4680BDCC04002090B587B002AF7860C9
:1052B0004FF40043FB810923BB817B681B68BB6003
:1052C0007B685B7F03F00303032B00F09980032BC3
:1052D00000F3B680012B02D0022B52D0B0E07B68E5
:1052E0001B6803F10D02BB8913444FF2C21118462B
:1052F00000F0A6FEBB890233BB817B681B6803F10B
:105300000D02BB8913440021184600F099FEBB89A9
:105310000233BB817B681B6803F10D02BB89134418
:105320000121184600F08CFEBB890233BB81BB898A
:10533000093B9AB27B681B680D33053300210120BD
:10534000FEF7C3FE7B681B68BA89053A92B29A8061
:105350007B685B7F23F00303DAB27B685A777B6854
:105360005B7F43F00203DAB27B685A777B681B6885
:10537000D3F878064FF47A737A68354901F056FD10
:1053800061E07B681B6840F22262DA807B681B6800
:105390001B687A68927E9A747B681B681B687A68BF
:1053A000D27EDA74BB681B687968184600F005FC89
:1053B000BB681868BB6803F10D01BB689A88BB68BD
:1053C00003F10D04BB6806330093234600F03CFC58
:1053D0000346FB81FB89002B03D040F20223FB81B3
:1053E00031E07B685B7F23F00303DAB27B685A7796
:1053F0007B685B7F43F00303DAB27B685A7722E075
:105400007B681B689B7CFF2B1CD07B681B689B7D8B
:10541000FB81FB896FEA43436FEA5343FB817B685F
:1054200003229A757B680A22DA757B681B68D3F8B9
:1054300078064FF47A737A68054901F0F7FC02E0C8
:1054400000BF00E000BFFB8918461437BD4690BD81
:105450007341000880B584B000AF786040F2022349
:10546000FB817B689B7D022B02D0032B7AD0A2E0CC
:10547000534A5449544800F065FF1423BB817B68AC
:105480005B7E002B01D1002200E00822BB8913447F
:10549000BB81BB8940F21562934203D94FF401737B
:1054A000FB8188E07B685B7E002B05D07868FFF786
:1054B000DAF90346002B7DD17B68597E7B685B7EE1
:1054C000002B01D1102200E018227B681B680D33ED
:1054D0000533F020FEF7F9FD7B681B680D330933B7
:1054E00010223A49184601F036FD7B685B7E002B9E
:1054F0000BD07B681B6803F126007B681B6803F5F3
:10550000D0630822194601F026FD7B685B7E002BE4
:1055100001D1142200E01C227B681B689A807B6802
:105520001B6803F5D06308220021184601F022FD14
:105530007B685B8C002B12D07B68588C7B681B6867
:1055400003F5D0630822194601F02CFB0346FB81CA
:10555000FB89002B03D040F20223FB812BE00023C8
:10556000FB8128E0164A1749194800F0EBFE7B68DA
:105570001B689B7C002B10D0114A1249154800F083
:10558000E1FE7B685B7F03F07F03DAB27B685A77CA
:105590007B685A7F7B685A770DE07B681B681B68C5
:1055A00033221A75064A07490B4800F0CBFE002348
:1055B000FB8100E000BFFB8918461037BD4680BD67
:1055C000000001080800010820000108840C0108FF
:1055D0003C000108680001089400010880B588B00B
:1055E00004AFF8600B467A60FB720B4A0B490C481B
:1055F00000F0A8FEF97AF02302937B680193002360
:1056000000930023074AF868FEF7BFFD0023184601
:105610001037BD4680BD00BF00000108080001082A
:10562000940C01085554000880B588B000AF78602C
:105630007B689B687B6140F20223FB830923BB8369
:105640008123FB767B689B7D022B02D0032B73D0DA
:1056500005E1854A8549864800F074FE0A233B82AD
:105660003B8A40F21562934207D94FF40173FB83E2
:105670007B691B6800221A80F1E07B681A68BB8B8B
:10568000083313445A1D7B691B891946104600F0E4
:10569000D7FCBB8B0233BB837B699B891A467B6932
:1056A000DB89D31A40F211629342A8BF1346FB81F3
:1056B0007B699B7C002B1FD17B681A68BB8B0833EE
:1056C0001344581D7B695A897B69DB8913449BB25B
:1056D000194600F0B5FCBB8B0233BB837B681A68AC
:1056E000BB8B083313440533FA891146184600F082
:1056F000A7FCBB8B0233BB837B691B894FF2C212B1
:10570000934201D10123FB767B68597EBB8B093B19
:105710009AB27B681B680D330533F87EFEF7D5FC23
:105720007B681B68BA8B053A92B29A807B69FA89CA
:105730001A820023FB8392E04B4A4C494D4800F00B
:1057400001FE7B6800221A767B681B689B7C002B1D
:105750002AD0454A4549484800F0F4FD7B69DB8979
:10576000002B0ED07B685B7F03F07F03DAB27B688F
:105770005A777B685B7F63F07F03DAB27B685A7786
:105780000EE07B685B7F03F07F03DAB27B685A77B9
:105790007B685A7F7B685A777B691B6800221A8076
:1057A00040F20223FB8359E07B681B8C48F208021D
:1057B000934207D17B691B687A69D2891A800023DA
:1057C000FB834BE07B681B68DB88043B7B827B6947
:1057D0009B897A8A9A420CD9234A2449264800F0A8
:1057E000B1FD4FF40173FB837B691B6800221A80B3
:1057F00035E07B695B687A69D28998187B681B6899
:105800000D3309337A8A194601F0A5FB7B69DA89E1
:105810007B8A13449AB27B69DA817B691B8A7A8A14
:105820009A4205D37B69DA897B699B899A420BD1BD
:105830007B691B687A69D2891A807B690022DA81C8
:105840007B6900221A8202E07B6801221A76064AEE
:1058500006490A4800F076FD0023FB8300BFFB8B5E
:1058600018462037BD4680BD000001080800010829
:105870006C0101088C010108BC010108E801010864
:1058800080B588B004AFF8600B467A60FB720B4AB3
:105890000B490C4800F056FDF97A812302937B688E
:1058A0000193062300930223074AF868FEF76DFC74
:1058B000002318461037BD4680BD00BF0000010818
:1058C00008000108B00C01082956000880B586B010
:1058D00000AF78607B689B683B610923BB8140F225
:1058E0000223FB827B689B7D022B03D0032B00F0FD
:1058F000CC80EDE0794A7A497A4800F023FD3B6993
:105900001B7C1A463B699B8913449AB23B695B7CBA
:10591000002B05D03B699B689B8809339BB200E054
:10592000052313449BB20A33FB81FB8940F21562C5
:10593000934203D94FF40173FB82C9E03B691B7C9E
:1059400019467B681B6803F10D0207F10C03012067
:10595000FEF7DEFB7B681B680D33BA8998183B693C
:1059600019683B691B7C1A4601F0F5FA3B691B7C00
:105970001A46BB8913449BB2BB813B6999897B68FA
:105980001B6803F10D0207F10C030220FEF7C0FBB8
:105990007B681B680D33BA8998183B6959683B6965
:1059A0009B891A4601F0D7FA3B699A89BB8913444F
:1059B0009BB2BB813B695B7C002B19D17B681B6868
:1059C00003F10D0207F10C0302210420FEF7A0FBF6
:1059D0007B681B680D33BA891A443B69DB89194619
:1059E000104600F02DFBBB8902339BB2BB8137E030
:1059F0007B681B6803F10D0207F10C0301210520F0
:105A0000FEF786FB3B699A687B681B6803F10D0112
:105A1000BB89581C80B2B8810B4492791A703B69DB
:105A20009B6899887B681B6803F10D0207F10C03E2
:105A30000620FEF76DFB7B681B680D33BA8998184A
:105A40003B699B6819683B699B689B881A4601F013
:105A500082FA3B699B689A88BB8913449BB2BB81DD
:105A60007B68597EBB89093B9AB27B681B680D3302
:105A70000533B220FEF729FBBA897B681B68053A1B
:105A800092B29A800023FB8222E0144A14491648FD
:105A900000F058FC7B681B689B7CFF2B10D10F4AE1
:105AA0000F49124800F04EFC7B685B7F03F07F03D8
:105AB000DAB27B685A777B685A7F7B685A7707E04F
:105AC000064A07490A4800F03DFC0023FB8200BF5C
:105AD000FB8A18461837BD4680BD00BF000001088C
